:100000000C94F3000C941B010C941B010C941B0129
:100010000C941B010C941B010C941B010C941B01F0
:100020000C941B010C941B010C94AF0C0C94210D2F
:100030000C941B010C941B010C941B010C941B01D0
:100040000C941B010C941B010C941B010C941B01C0
:100050000C941B010C941B010C941B010C94650C5B
:100060000C941B010C94B6010C9490010C941B0190
:100070000C941B010C941B010C941B010C941B0190
:100080000C941B010C941B010C941B010C941B0180
:100090000C941B010C941B010C941B010C941B0170
:1000A0000C941B010C941B010C941B011D07E6050D
:1000B000D105F405EE05EA058D05BD05760979093A
:1000C00068096C0972099A099A099A097D098109D6
:1000D00085098B098F099A0995090706050401000E
:1000E000080A0B0C0D0900000000240027002A005C
:1000F0002D0030000000000200090F000003040181
:10010000000C0000000000000000000000000000E3
:10011000000000000000002300260029002C002F12
:1001200000040802011040804010204080408008F8
:100130000204018040201002011080102040402065
:1001400000000000250028002B002E0031000404D0
:100150000404040304050202020204030202020270
:1001600006060606060604040202020404080B0042
:10017000020202010009040000010202000005243D
:1001800000100105240101010424020605240600D3
:10019000010705810310004009040100020A000064
:1001A000000705020240000007058302400000042A
:1001B00003090412010002EF0201404123368000CE
:1001C000010102030141726475696E6F204C4C435A
:1001D0000041726475696E6F204C656F6E61726468
:1001E0006F00EB13DB1311241FBECFEFDAE0DEBF8D
:1001F000CDBF24E0A4E0B2E001C01D92A337B20756
:10020000E1F712E0A0E0B1E0EAEBF1E302C0059013
:100210000D92A430B107D9F710E0C2EFD0E004C0CE
:100220002197FE010E948F17C13FD107C9F70E9495
:10023000660F0C94D0180C94000080E692E00E94A7
:100240000A0221E0892B09F420E0822F0895EF9221
:10025000FF920F931F93CF93DF93EC0181E0888F80
:100260009B8D8C8D981305C0E889F989808185FD67
:1002700024C0F62E0B8D10E00F5F1F4F0F73112758
:10028000E02E8C8DE8120CC00FB607FCFACFE8897F
:10029000F989808185FFF5CFCE010E943B04F1CF23
:1002A0008B8DFE01E80FF11DE35AFF4FF0820B8F9B
:1002B000EA89FB898081806207C0EE89FF896083BB
:1002C000E889F98980818064808381E090E0DF9112
:1002D000CF911F910F91FF90EF900895CF93DF93EF
:1002E000EC01888D8823C9F0EA89FB89808185FD2E
:1002F00005C0A889B9898C9186FD0FC00FB607FC8F
:10030000F5CF808185FFF2CFA889B9898C9185FFCF
:10031000EDCFCE010E943B04E7CFDF91CF9108954E
:100320001F920F920FB60F9211242F933F934F936A
:100330005F936F937F938F939F93AF93BF93EF934D
:10034000FF9380E692E00E943B04FF91EF91BF9102
:10035000AF919F918F917F916F915F914F913F915D
:100360002F910F900FBE0F901F9018951F920F9214
:100370000FB60F9211242F938F939F93EF93FF93B8
:10038000E0917002F09171028081E0917602F0912B
:10039000770282FD12C09081809179028F5F8F7306
:1003A00020917A02821751F0E0917902F0E0E05A50
:1003B000FD4F958F8093790201C08081FF91EF916D
:1003C0009F918F912F910F900FBE0F901F901895B6
:1003D000FC01918D828D981761F0828DDF01A80F4D
:1003E000B11D5D968C91928D9F5F9F73928F90E06F
:1003F00008958FEF9FEF0895FC01918D828D9817DE
:1004000031F0828DE80FF11D858D90E008958FEF1A
:100410009FEF0895FC01918D228D892F90E0805CE3
:100420009F4F821B91098F739927089580E090E078
:10043000892B29F00E941D0181110C940000089560
:10044000CF93DF931F92CDB7DEB76983DC01ED91C7
:10045000FC910280F381E02D41E050E0BE016F5F2E
:100460007F4F09950F90DF91CF91089583E080939E
:10047000E9008091F200882319F08AE38093E80074
:100480000895FC018485958597FD0BC09FB7F8946E
:1004900082E08093E9008091F2009FBF90E0019696
:1004A00008959FB7F89482E08093E9008091F2006C
:1004B0009FBF90E00895CF93DF93EC0188819981ED
:1004C000009789F0DC01ED91FC910190F081E02D25
:1004D0006AE070E00995009741F0FC0111821082FA
:1004E0001582148202C080E090E0EA81FB8130979F
:1004F00051F0208131812115310511F0F901F9CF39
:100500009183808302C09B838A83DF91CF9108957A
:10051000FC0126813781620F731F848195818617C4
:10052000970738F08281938177836683820F931FC8
:10053000089580E090E00895813051F0E8F0823035
:1005400061F0833079F46FE672E183E89AE308950D
:100550006DEC7CEC8CEC9DE308956AE077ED83E232
:100560009CE3089584500E949C0227E137EB41ED03
:1005700058E30E945D15089560E070E080E89FE315
:100580000895CF93DF93EC0188819981DC01ED918F
:10059000FC910190F081E02D09952A813B81820F29
:1005A000931F9B838A83DF91CF9108957F928F92CF
:1005B0009F92AF92BF92CF92DF92EF92FF920F93F2
:1005C0001F93CF93DF936C015B017A0180910B0144
:1005D000882309F46BC080915F02882309F466C008
:1005E0008091600480FF05C08091E000826080936C
:1005F000E000E70110E00AEF83E0982E90E4792E06
:100600002AE3822E209709F448C08FB7F89490927D
:10061000E9009091E80095FF06C09091F200272D27
:10062000291B922F01C090E08FBF91110AC0015089
:1006300009F43CC061E070E080E090E00E94070AAD
:10064000E1CF292F30E0C217D3070CF49C2F8FB7CE
:10065000F8949092E9002091E80025FF1CC0292F12
:1006600030E0C21BD30BF501915020F04191409333
:10067000F100FACFA20EB31E112319F08092E80008
:1006800009C09091E80095FD06C08092E80011E055
:10069000209709F010E08FBFB5CF1111B6CF5D984C
:1006A00084E6809361041E141F0444F081E090E00E
:1006B000F6019383828380E090E001C0C701DF915F
:1006C000CF911F910F91FF90EF90DF90CF90BF904F
:1006D000AF909F908F907F9008950F931F93CF932B
:1006E000DF931F92CDB7DEB78C01FC018485958521
:1006F00097FF0EC0CE0101960E942009019719F4C0
:10070000298130E002C02FEF3FEFF80135872487C1
:10071000F801848595850F90DF91CF911F910F91FE
:100720000895CF93DF931F92CDB7DEB7FC01848588
:10073000958597FD05C02FEF3FEF358724870BC0C8
:10074000CE0101960E942009019719F4898190E059
:1007500002C08FEF9FEF0F90DF91CF9108950E941D
:10076000C218CF93DF93EC01888199810E94510FC9
:100770002A813B81820F931F9B838A83DF91CF91D4
:1007800008958F929F92AF92BF92EF92FF920F9334
:100790001F93CF93DF93CDB7DEB766970FB6F8946C
:1007A000DEBF0FBECDBF7C011E8A8E010A5E1F4FC9
:1007B0008AE0882E912CA12CB12CCB01BA01A50185
:1007C00094010E944E17942F852F605DF80162936B
:1007D0008F01A901692F782F411551056105710518
:1007E00061F7BF01C7010E94B10366960FB6F89486
:1007F000DEBF0FBECDBFDF91CF911F910F91FF9054
:10080000EF90BF90AF909F908F900895FF920F93BD
:100810001F93CF93DF936115710549F464EE71E086
:10082000DF91CF911F910F91FF900C94B1038B0139
:10083000EC0162E2CE010E94C102F80161918F01D8
:10084000662351F0E5EDF1E0F080FF2099F391810E
:10085000961759F03296F8CF62E2CE01DF91CF9130
:100860001F910F91FF900C94C1026CE5CE010E9484
:10087000C1026F2DDFCFFC01848DDF01A80FB11DF8
:10088000A35ABF4F2C91848D90E001968F739927C6
:10089000848FA689B7892C93A089B1898C918064B3
:1008A0008C93938D848D981306C00288F389E02D74
:1008B00080818F7D80830895CF92DF92EF92FF92A7
:1008C0000F931F93CF93DF938C017B016A01FC018F
:1008D000C281D381209759F06A817B81C7010E9430
:1008E000C718892B61F00990D881C02DF3CFC801BA
:1008F0000E945B02EC01892B89F0FB82EA82F601FF
:1009000080819181A281B3812AE030E03D832C83F4
:100910008E839F83A887B98781E001C080E0DF9143
:10092000CF911F910F91FF90EF90DF90CF9008959E
:10093000CF92DF92EF92FF920F931F93CF93DF93AB
:100940008C017B016A01FC01C281D381209759F09F
:100950006A817B81C7010E94C718892B61F00990C9
:10096000D881C02DF3CFC8010E945B02EC01892B16
:10097000F9F0FB82EA82F6018081918197FD07C040
:10098000092E000CAA0BBB0B24E030E009C09195A6
:1009900081959109092E000CAA0BBB0B25E030E0D4
:1009A0003D832C838E839F83A887B98781E001C014
:1009B00080E0DF91CF911F910F91FF90EF90DF903A
:1009C000CF900895CF93C1E08C2F0E94DF080E9442
:1009D000B50762E370E080E090E00E94070ACF5F15
:1009E000C23391F78C2F0E94DF080E94B50762E3A3
:1009F00070E080E090E00E94070AC15099F7CF9123
:100A000008950F931F93CF93DF9306E010E0C1E0AA
:100A1000D0E040E056E960E070E0CE010E9474084A
:100A20000E94B50768EC70E080E090E00E94070A41
:100A300040E050E0BA01CE010E9474082196C73010
:100A4000D10539F70150110911F7DF91CF911F91AD
:100A50000F910895CF93DF93C0E0D0E040E050E0E5
:100A6000BA01CE010E9474080E94B5072196C730D2
:100A7000D105A1F7DF91CF9108950F931F93CF93E5
:100A8000DF938C01EB016BE7CE010E94C102F801FC
:100A90000281138101151105A9F0F80162817381AA
:100AA000CE010E9406046AE3CE010E94C102BE018B
:100AB000C80104960E946F05F8010081118101159B
:100AC000110541F46DE7CE01DF91CF911F910F9198
:100AD0000C94C1026CE2CE010E94C102DBCF4F92A6
:100AE0005F926F927F929F92AF92BF92CF92DF926E
:100AF000EF92FF920F931F93CF93DF938C01EB0143
:100B0000FC01A080B180F8E0AF16B10408F07BC012
:100B1000F501EA5AFF4F0C948F17FC0102811381F3
:100B20006BE5CE010E94C102F8010281138101151B
:100B3000110559F0BE01C80102960E946F05F80127
:100B4000008111810115110599F46DE5CE01DF9148
:100B5000CF911F910F91FF90EF90DF90CF90BF90BA
:100B6000AF909F907F906F905F904F900C94C102D8
:100B70006CE2CE010E94C102DACFFC018281938136
:100B8000DF91CF911F910F91FF90EF90DF90CF9069
:100B9000BF90AF909F907F906F905F904F900C941C
:100BA0003D05FC0162817381CE01DF91CF911F91E0
:100BB0000F91FF90EF90DF90CF90BF90AF909F90FC
:100BC0007F906F905F904F900C940604FC016281BF
:100BD000738157C06DE2CE010E94C102F8014281CB
:100BE00053816481758117C1FC0182819381A48145
:100BF000B581892B8A2B8B2B19F46EEE71E041C0E5
:100C000069EE71E03EC088EF982E9A0CF801C28020
:100C1000D380E480F580A7019601C701B6010E9448
:100C20003517882319F064EF71E02BC020E030E025
:100C3000A901C701B6010E94F71487FF08C06DE241
:100C4000CE010E94C102F7FAF094F7F8F094260161
:100C50003701E89477F82FEF3FEF4FE75FE7C301E5
:100C6000B2010E94351781111EC02FEF3FEF4FE7F1
:100C70005FE7C301B2010E94F7141816A4F468EFED
:100C800071E0CE01DF91CF911F910F91FF90EF9016
:100C9000DF90CF90BF90AF909F907F906F905F90CC
:100CA0004F900C94B10320E030E04AE754E4C701D0
:100CB000B6010E94301700E010E018160CF12FE684
:100CC00032E143E85AE3C701B6010E94F71487FFF7
:100CD00037C016C020E030E040E85FE3C701B6014E
:100CE0000E94F71487FF15C00150110920E030E081
:100CF00040E251E4C701B6010E945D156B017C0121
:100D000020E030E0A901C701B6010E94F71481116B
:100D1000E1CF20E030E040E251E4C701B6010E949B
:100D2000301718166CF40F5F1F4F20E030E040E2E0
:100D300051E4C701B6010E9488166B017C01E9CF1E
:100D4000892D0E949C0220E030E040E05FE30E9499
:100D50005D159B01AC01C701B6010E941C162B0159
:100D60003C010E9401176B017C010E94FC149B0155
:100D7000AC01C301B2010E941B162B013C01B7015B
:100D8000A601CE010E94C103992021F06EE2CE019E
:100D90000E94C102F8E0AF1619F120E030E040E215
:100DA00051E4C301B2010E945D152B013C010E9478
:100DB000FA16F62E062E000C770B880B990B0E9464
:100DC000FE149B01AC01C301B2010E941B162B0152
:100DD0003C0160E36F0DCE010E94C102AA94DACFFC
:100DE00017FF0EC061E072E0CE010E94B1034427FC
:100DF0005527401B510B052E000C660B770B0BC0C3
:100E000001151105D1F065E6CE010E94C102A801CD
:100E1000110F660B770BCE01DF91CF911F910F91D0
:100E2000FF90EF90DF90CF90BF90AF909F907F901A
:100E30006F905F904F900C94C103DF91CF911F9101
:100E40000F91FF90EF90DF90CF90BF90AF909F9069
:100E50007F906F905F904F9008958F929F92AF9286
:100E6000BF92CF92DF92EF92FF92CF93DF93A09148
:100E70005403882311F03A2F01C030E080915503CC
:100E800090E0880F991F8D5E9E4FC0905A03D090BE
:100E90005B03E0905C03F0905D0340E050E0BA013A
:100EA000FC01C591D49128812A2323130FC04A0144
:100EB0005B012FEF821A920AA20AB20A4C155D0555
:100EC0006E057F0538F4B501A401EACF342F252F34
:100ED000CB0104C030E020E080E090E0632F722F6F
:100EE000DF91CF91FF90EF90DF90CF90BF90AF90C8
:100EF0009F908F9008950F931F930E94590C6093B9
:100F000068027093690280936A0290936B02E09189
:100F10006002F09161020680F781E02D80E692E0A8
:100F2000099597FF1FC00E94590C0091680210910B
:100F3000690220916A0230916B02DC01CB01801BB7
:100F4000910BA20BB30B00916402109165022091EA
:100F500066023091670280179107A207B307B8F2C3
:100F60008FEF9FEF1F910F9108950F931F93CF93D2
:100F7000DF93CDB7DEB729970FB6F894DEBF0FBE6B
:100F8000CDBF8091670390916803892B09F4A1C0BC
:100F90000E94340C00916D0310916E0320916F0339
:100FA00030917003DC01CB01801B910BA20BB30BC2
:100FB000C297A105B10560F3F89480916303909105
:100FC00064039A838983E0916703F0916803DF01EA
:100FD00011968081898790915F03E0917103F09170
:100FE000720380917303992309F42EC09081982B8A
:100FF00098879081809589238F838F818C8388E067
:101000008B8358856F8149853B812C8189819A81A9
:10101000508347FD252F3A952083262F39F0441F12
:1010200000C000006083000000C0F2CF38E04D91A6
:1010300060830000019761F7F0937203E0937103FE
:1010400049873B832C8338C09081982B9887908167
:10105000809589238F838F818E8388E08D83588547
:101060006F8149853D812E8189819A81508347FD19
:10107000252F00C000C0208300C000C000C000C0F9
:1010800000C060830000262F3A9541F0441F000005
:1010900000C000C000C000C000C0E8CF38E04D91E3
:1010A00000C0608300C0019709F7F0937203E093DA
:1010B000710349873D832E839A83898378940E94A4
:1010C000340C60936D0370936E0380936F03909361
:1010D000700329960FB6F894DEBF0FBECDBFDF9127
:1010E000CF911F910F9108958F929F92AF92BF92CF
:1010F000CF92DF92EF92FF922091610330916203D1
:101100008217930708F052C04B01AA24BB24E82D94
:10111000C52ED62EE72EFF24FC2D342F20916603FA
:10112000222361F0829E40011124E92DC29E6001BC
:101130001124FD2D429FD00111243B2FF0906C0310
:10114000E0906903A0916703B0916803FE1008C0A6
:10115000AC01440F551F840F951F8A0F9B1F14C0AD
:10116000880F991F880F991F8A0F9B1F472F55279C
:1011700066277727DC01AF0DB11D222321F0429FA6
:10118000A0011124452F4C9320916903DC01A20F8B
:10119000B11DEC9320916A03DC01A20FB11DFC93F9
:1011A00020916B03FC01E20FF11D3083FF90EF9063
:1011B000DF90CF90BF90AF909F908F9008951F9336
:1011C000CF93DF9311E0180F209166031217A1F15E
:1011D000C0916703D09168032150B9F08F3F59F453
:1011E00030E040E050E06FEF7FEF80E090E00E9461
:1011F0007017B9010CC0812F90E0982F88270197B4
:10120000622F70E00E943A1702C060E070E0FE01B9
:101210004091630350916403CF018C1B9D0B841795
:10122000950740F44081469FC001479F900D1124CF
:101230009193EECF10936603DF91CF911F910895A4
:10124000FC0180915F02811103C08FEF9FEF089531
:101250009FB7F89482E08093E9002091F20030E09B
:101260001216130614F421E030E02115310559F06F
:10127000289884E680935E028091F10080838091BB
:10128000F200882319F09FBFC90108958BE680936F
:10129000E800F9CF80914A0481110DC082E080936B
:1012A000460484E080934704109249041092480455
:1012B00081E080934A0486E494E0089590E0FC0184
:1012C0003197EF30F105B0F5E25AFF4F0C948F17CC
:1012D000809180008F7703C0809180008F7D809304
:1012E0008000089580918000877FF9CF84B58F7743
:1012F00002C084B58F7D84BD0895809190008F7762
:1013000007C0809190008F7D03C080919000877FFF
:101310008093900008958091C0008F7703C08091E2
:10132000C0008F7D8093C00008958091C200877FA8
:101330008093C20008951F93CF93DF93282F30E04E
:10134000F901EC50FF4F8491F901EF5DFE4FD4910C
:10135000F901E25BFE4FC491CC23C9F0162F811135
:101360000E945E09EC2FF0E0EE0FFF1FE05CFE4FE5
:10137000A591B4918FB7F894111105C09C91ED2FF0
:10138000E095E92302C0EC91ED2BEC938FBFDF9148
:10139000CF911F910895CF93DF9390E0FC01EF5D13
:1013A000FE4F2491FC01E25BFE4F8491882361F1A2
:1013B00090E0880F991FFC01EA51FF4FC591D4912D
:1013C000FC01E05CFE4FA591B491611109C09FB78B
:1013D000F8948881209582238883EC912E230BC07A
:1013E000623061F49FB7F8943881822F809583230F
:1013F0008883EC912E2B2C939FBF06C08FB7F89457
:10140000E8812E2B28838FBFDF91CF9108958F9293
:101410009F92AF92BF92CF92DF92EF92FF926B01B9
:101420007C010E94340C4B015C01C114D104E10425
:10143000F104F1F00E94340CDC01CB018819990908
:10144000AA09BB09883E9340A105B10570F321E0CC
:10145000C21AD108E108F10888EE880E83E0981ED0
:10146000A11CB11CC114D104E104F10419F7DDCFB2
:10147000FF90EF90DF90CF90BF90AF909F908F90B4
:101480000895CF92DF92EF92FF920F931F93CF9325
:10149000DF93CDB7DEB7C054D1400FB6F894DEBFAE
:1014A0000FBECDBF0E94590C0091560310915703F7
:1014B00020915803309159036B017C01C01AD10A65
:1014C000E20AF30A40EDC41647E0D406E104F10451
:1014D00018F480915E03BCC0609356037093570369
:1014E0008093580390935903109251031092500324
:1014F00010924F0310924E0310924D0361E08091C1
:1015000052030E949B096AEF70E080E090E00E9425
:10151000070A61E0809152030E94CB0960E080914C
:1015200052030E949B0964E170E080E090E00E9419
:10153000070AF89461E0809152030E949B098BE9AD
:1015400090E00197F1F762E0809152030E94CB098D
:1015500083E290E00197F1F780E00E942D07672B6E
:10156000682B692B21F410925E0378943EC081E0D1
:101570000E942D07672B682B692BA9F38E010F5F43
:101580001F4F6E018FEBC81A8EEFD80A780180E0EA
:101590000E942D07F701608371838283938381E02A
:1015A0000E942D07F7016483758386839783F8E093
:1015B000EF0EF11CEC14FD0451F7789420E030E0BC
:1015C000F8014081518162817381C480D580E680B9
:1015D000F780411551056105710529F0C114D10449
:1015E000E104F10421F410925E0380E031C0F901BE
:1015F00083E0F595E7958A95E1F7E35BFC4F808101
:10160000880F4C155D056E057F0508F481608083A9
:101610002F5F3F4F085F1F4F2832310589F6209119
:10162000510330E040914D0380914E0390E0840FD0
:10163000911D40914F03840F911D40915003840FE1
:10164000911D99272817390771F681E080935E0371
:10165000C05CDE4F0FB6F894DEBF0FBECDBFDF918A
:10166000CF911F910F91FF90EF90DF90CF90089551
:1016700040916404509165042091620430916304A8
:1016800042175307B4F49091E8009570E1F39091FC
:10169000E80092FD19C08093F1008091640490915C
:1016A000650401968F739927892B19F48EEF809327
:1016B000E80080916404909165040196909365041C
:1016C0008093640481E0089580E00895CF92DF92D2
:1016D000EF92FF920F931F93CF93DF931F92CDB79B
:1016E000DEB7182F062FE42E862F880F8E5F998382
:1016F0000E94380B83E00E94380BF12EC12E998195
:10170000D92E8C2D8F19801798F4F601E7FE02C0B0
:10171000849101C080810E94380B182F80E00E94C4
:10172000380B8123FFEFCF1ADF0A8111EACF01C006
:1017300081E00F90DF91CF911F910F91FF90EF907B
:10174000DF90CF900895DF92EF92FF920F931F9357
:10175000CF93DF93D82E8A017B01E40EF51EEB01B7
:10176000CE15DF0571F0D7FE03C0FE01849101C0E4
:1017700088810E94380B21968111F2CF8FEF9FEF65
:1017800001C0C801DF91CF911F910F91FF90EF90A1
:10179000DF900895615030F02091F100FC0120832A
:1017A0000196F8CF289884E680935E020895CF9240
:1017B000DF92EF92FF920F931F93CF93DF936C0111
:1017C0007A018B01C0E0D0E0CE15DF0589F0D801A9
:1017D0006D918D01D601ED91FC910190F081E02D8C
:1017E000C6010995892B11F47E0102C02196ECCF28
:1017F000C701DF91CF911F910F91FF90EF90DF9084
:10180000CF9008950F931F93CF93DF931F92CDB77F
:10181000DEB782E0898342E450E06DE671E080E863
:101820000E94A30B0E944A09DC0112960D911C91A3
:1018300013970115110569F0D801ED91FC91028013
:10184000F381E02DBE016F5F7F4FC801099597FFBF
:1018500007C089810F90DF91CF911F910F9108955B
:10186000F80100851185E5CF3FB7F89480916B04AE
:1018700090916C04A0916D04B0916E0426B5A89B64
:1018800005C02F3F19F00196A11DB11D3FBFBA2F12
:10189000A92F982F8827820F911DA11DB11DBC0172
:1018A000CD0142E0660F771F881F991F4A95D1F737
:1018B00008952FB7F894609167047091680480913F
:1018C000690490916A042FBF08951F920F920FB67A
:1018D0000F9211242F933F938F939F93AF93BF93B6
:1018E0008091670490916804A0916904B0916A04A2
:1018F0003091660423E0230F2D3720F40196A11DBB
:10190000B11D05C026E8230F0296A11DB11D20932D
:1019100066048093670490936804A0936904B0936D
:101920006A0480916B0490916C04A0916D04B09155
:101930006E040196A11DB11D80936B0490936C04FD
:10194000A0936D04B0936E04BF91AF919F918F915E
:101950003F912F910F900FBE0F901F9018951F92DF
:101960000F920FB60F9211248F939F938091E100F5
:101970009091E100937F9093E10083FF0FC010925C
:10198000E90091E09093EB001092EC0092E39093C9
:10199000ED0010925F0298E09093F00082FF20C06B
:1019A00093E09093E9009091F200992319F09AE363
:1019B0009093E80090916104992339F0909161042B
:1019C000915090936104992389F190915E0299233B
:1019D00039F090915E02915090935E02992341F10B
:1019E00084FF10C08091E2008E7E81608093E200CF
:1019F0008091E1008F7E8093E100809160048E7E73
:101A0000806111C080FF16C08091E2008E7E8061EF
:101A10008093E2008091E1008E7E8093E1008091CE
:101A200060048E7E81608093600404C05D9ACDCF97
:101A3000289AD6CF9F918F910F900FBE0F901F9035
:101A400018951F920F920FB60F921124CF92DF922A
:101A5000EF92FF920F931F932F933F934F935F93B8
:101A60006F937F938F939F93AF93BF93EF93FF9366
:101A7000CF93DF93CDB7DEB76C97DEBFCDBF1092AB
:101A8000E9008091E80083FFEDC168E0CE01459652
:101A90000E94CA0B82EF8093E8008D8987FF05C002
:101AA0009091E80090FFFCCF03C09EEF9093E80078
:101AB000982F907609F0C6C09E892F89188D9111B4
:101AC0000CC0803829F480915F048093F10002C03B
:101AD0001092F1001092F10048C1422F50E0512BBA
:101AE000913051F4811141C14130510509F03DC19E
:101AF00080915F048D7F0BC0933061F4811135C1FB
:101B00004130510509F031C180915F0482608093BA
:101B10005F042BC1953041F48091E80080FFFCCF39
:101B200020682093E30021C1963009F05FC0EB8C60
:101B3000FC8C1092E900109265041092640412303B
:101B400091F510926304109262040E94020C99E0D5
:101B5000BE016F5F7F4FDB01E92F1D92EA95E9F728
:101B600099831A8391E09E8390EA98879AEF9987E8
:101B70002091640430916504275F3F4F3C832B83A1
:101B80008D831092E9001092650410926404F09223
:101B90006304E092620449E050E080E00E94A30BFD
:101BA0000E94020CE2C0F0926304E09262040E9480
:101BB0004A09DC011296ED90FC901397E114F104B0
:101BC00009F4C0C0D701ED91FC910480F581E02DAE
:101BD000BE016B5E7F4FC7010995009719F00CF0AD
:101BE000C4C0C7C0F701E084F184E8CF973009F49E
:101BF000C0C0983021F481E08093F100B6C09930E4
:101C000009F0B3C0837009F0B4C0E9E3F1E081E00A
:101C100021E036E39081992361F08093E9002093DD
:101C2000EB0091919093EC003093ED008F5F873043
:101C300089F78EE78093EA001092EA008F898093FB
:101C40005F0293C08B8D9C8D1092E9001092650409
:101C5000109264049093630480936204898D8111CF
:101C600056C08E899D89913A59F4813209F081C01C
:101C700047E050E064E071E080E00E94A30B75C093
:101C8000913209F076C0833289F4888D90E0982FE4
:101C900088272F89822BA0E0B0E0809300019093E9
:101CA0000101A0930201B09303015FC0803269F487
:101CB0008091E80082FFFCCF67E084E091E00E9421
:101CC000CA0B8BEF8093E80006C0823209F04DC04A
:101CD0008F8980930B0180915E04882319F0EEEFC9
:101CE000FAE002C0E0E0F8E0809104019091050183
:101CF000A0910601B0910701803B9440A105B10578
:101D000009F07BC080910B0180FF93C076C00E94D8
:101D10004A09DC0112960D911C91139701151105CA
:101D200041F1D801ED91FC910190F081E02DBE01CF
:101D30006B5E7F4FC8010995811117C0F8010085BE
:101D40001185ECCF113009F44EC0133091F48F8916
:101D5000882309F445C0823081F440E860E181EDD8
:101D600091E00E94660B882321F08EEF8093E800BB
:101D700079C081E28093EB0075C0813029F440E89E
:101D80006BE085EC91E0EDCF833099F70E944A0932
:101D9000DC011296ED90FC9013978E010F5F1F4FA0
:101DA0006801E114F10479F0D701ED91FC9106800E
:101DB000F781E02DB801C7010995080F111DF70142
:101DC000E084F184EECFD8011C92F601019000204E
:101DD000E9F73197BF016C197D0940E0C601C1CF19
:101DE0006FEA71E002C063EB71E06115710509F201
:101DF000FB01449150E080E840CF0FB6F894A895DD
:101E000080916000886180936000109260000FBE36
:101E1000A895EE3F2AE0F20739F08091FE0A9091F2
:101E2000FF0A91838083A1CF1092FF0A1092FE0ACD
:101E30009CCFEE3F8AE0F80731F08081918190934A
:101E4000FF0A8093FE0A87E797E7918380839BE0F0
:101E500088E10FB6F894A895809360000FBE909328
:101E6000600083CF6C960FB6F894DEBF0FBECDBF77
:101E7000DF91CF91FF91EF91BF91AF919F918F91A2
:101E80007F916F915F914F913F912F911F910F9192
:101E9000FF90EF90DF90CF900F900FBE0F901F90AC
:101EA00018956115710579F0FB0101900020E9F7A3
:101EB0003197AF01461B570BDC01ED91FC9102807D
:101EC000F381E02D099480E090E00895CF93DF93B3
:101ED000CDB7DEB728970FB6F894DEBF0FBECDBFE3
:101EE000789484B5826084BD84B5816084BD85B5F5
:101EF000826085BD85B5816085BD80916E00816001
:101F000080936E00109281008091810082608093A6
:101F100081008091810081608093810080918000A8
:101F20008160809380008091910082608093910015
:101F300080919100816080939100809190008160F8
:101F4000809390008091C10084608093C100809153
:101F5000C10082608093C1008091C1008160809344
:101F6000C1008091C30081608093C3008091C00054
:101F700082608093C0008091C20081608093C20023
:101F800080917A00846080937A0080917A008260E8
:101F900080937A0080917A00816080937A008091AA
:101FA0007A00806880937A0010925F0210925F043A
:101FB000109260048091D70081608093D70080EAFE
:101FC0008093D80089B5806189BD89B5826089BD5B
:101FD00009B400FEFDCF61E070E080E090E00E9477
:101FE000070A8091D8008F7C80618093D80080910F
:101FF000E000807F8093E0008091E1008E7E8093FE
:10200000E1008DE08093E200559A209AEEEFFFE721
:10201000859194918B3F9C4D19F481E080935E04EF
:102020008FEF9FEF90930A0380930903E091700272
:10203000F091710282E08083E0916C02F0916D0278
:102040001082E0916E02F0916F028FEC808310920B
:102050007802E0917402F091750286E08083E0914D
:102060007202F0917302808180618083E09172023C
:10207000F0917302808188608083E0917202F09118
:102080007302808180688083E0917202F091730214
:1020900080818F7D80838CED95E0A0E0B0E080931F
:1020A000640290936502A0936602B09367028091E8
:1020B000650387FD08C061E00E94CB0960E0809164
:1020C00065030E949B0981E08093600362E0809138
:1020D00052030E94CB0980E398EFAFEFBFEF8093EC
:1020E000560390935703A0935803B093590362E0AB
:1020F00084E00E94CB0910922502109224020E94D3
:10210000010568EE73E080E090E00E94070A02E5B6
:10211000C02E01E0D02E8FEDA82E80E0B82E9DEFCE
:10212000892E92E0992E80915C0280FD4CC18DEF4A
:1021300092E00E94410221E0181619060CF020E0FE
:1021400020932602222309F4EBC28DEF92E00E9435
:1021500091032091240230912502F901EC5FFD4F9B
:1021600080838A3009F020C1108264E072E08DEF34
:1021700092E00E94510F6FE371E08DEF92E00E94B8
:10218000510F109225021092240262E471E084E063
:1021900092E00E94C718892B19F40E940105C0C261
:1021A00061E571E084E092E00E94C718892BD9F4C0
:1021B0008AE00E94DF08EE24E394F12C4DE65DE214
:1021C00067ED70E0C7010E9474080E94B5078FEFA9
:1021D000E81AF80AE7E0EE16F10481F760ED77E01F
:1021E00080E090E0D2C06FE571E084E092E00E9470
:1021F000C718892B09F482C06BE671E084E092E095
:102200000E94C718892B09F07CC08BE40E94DF086C
:102210000E942A0541E053E26FEF70E081E090E018
:102220000E94740841E053E26FEF70E083E090E0B9
:102230000E94740841E053E26FEF70E085E090E0A7
:102240000E9474080E94B5076AEF70E080E090E099
:102250000E94070A40E050E0BA0181E090E00E944D
:10226000740840E050E0BA0183E090E00E947408F6
:1022700040E050E0BA0185E090E00E9474080E94BE
:10228000B5076AEF70E080E090E00E94070A41E045
:1022900053E26FEF70E082E090E00E94740841E04A
:1022A00053E26FEF70E084E090E00E94740841E038
:1022B00053E26FEF70E086E090E00E9474080E94A5
:1022C000B5076AEF70E080E090E00E94070A40E006
:1022D00050E0BA0182E090E00E94740840E050E0D3
:1022E000BA0184E090E00E94740840E050E0BA0136
:1022F00086E090E00E9474080E94B5070E94E20404
:102300000FC265E771E084E092E00E94C718892B54
:10231000A1F4EE24E394F12C40E056E960E070E093
:10232000C7010E947408FFEFEF1AFF0A27E0E216C8
:10233000F10491F70E94B507F3C16CE771E084E006
:1023400092E00E94C718892B19F58AE00E94DF08E5
:1023500043EB51E762E270E080E090E00E94740895
:102360000E94B50768EC70E080E090E00E94070AE8
:1023700040E050E0BA0180E090E00E9474080E94C2
:10238000B50768EC70E080E090E00E94070AC8C1E1
:1023900065E871E084E092E00E94C718892B09F09B
:1023A000BFC10E942A05BCC1203231053CF42F5F19
:1023B0003F4F3093250220932402B2C11092250290
:1023C00010922402ADC1E0907403F090750364EFA5
:1023D00071E080E090E00E94070A0E94410A882391
:1023E000C9F1809153038B3029F0A0F185518230DF
:1023F00048F030C060914F0370E080E090E00E94B0
:10240000FC142CC070904F03672D6F7770E080E054
:1024100090E00E94FE1420E030E040E853E40E9487
:102420005D151B012C016091500370E080E090E08D
:102430000E94FE149B01AC01C201B1010E941C1656
:102440002DEC3CEC4CEC5DE30E945D1577FE06C084
:10245000905804C060E070E080EC9FE76D837E835D
:102460008F8398870E94410A8823A9F180915303A2
:102470008B3039F180F18551823068F560914D03E0
:1024800070E080E090E00E94FC1420E030E040E842
:1024900053E40E945D152B013C0160914E0370E0F6
:1024A00080E090E00E94FE149B01AC01C301B201E8
:1024B0000E941C162DEC3CEC4CEC5DE30E945D157B
:1024C00007C060914D0370E080E090E00E94FC1432
:1024D0002B013C0106C0412C512CA0EC6A2EAFE729
:1024E0007A2E49825A826B827C826D817E818F81B5
:1024F00098859B01AC010E943517882309F422C1FD
:10250000A3019201C301B2010E943517882309F487
:1025100019C1E0907403F09075030E947B0797FD4A
:1025200006C082349105C9F780E090E002C08FEFC9
:102530009FEF892B91F5F9E36F2EF2E07F2E2301B7
:102540000E947B0797FF07C0809139028D3429F5DF
:1025500020E030E009C0F20181932F01F8E54F1629
:10256000F2E05F0669F7F0CFF30181913F01280F98
:10257000311DF6E56F16F2E07F06B1F72E5B3F4F97
:102580008091560290E0982F882740915702840F3F
:10259000911D2817390709F4E6C080912B0281119B
:1025A0000DC00E94590C60932702709328028093FB
:1025B000290290932A0221E020932B020E94590CB9
:1025C00040902702509028026090290270902A02C1
:1025D000DC01CB0184199509A609B709883E93400F
:1025E000A105B105F8F00E94590C60932702709381
:1025F00028028093290290932A0247E352E06FE871
:1026000071E0C7010E94980445E352E069E971E076
:10261000C7010E94980443E352E064EA71E0C701F5
:102620000E949804E0907403F0907503E8EFF0E0E6
:102630008491E5E2F1E07490F60164906620A1F0E7
:1026400081110E945E09E62DF0E0EE0FFF1FED5EA6
:10265000FE4FA591B4918C91782231E020E009F4ED
:1026600030E0832F922F02C080E090E0F1E08F27CE
:10267000909359028093580248E552E06EEA71E067
:10268000C7010E9498042091740330917503F501ED
:10269000949180917B0093FB002700F910E0A80142
:1026A00065E0440F551F6A95E1F78F7D482B4093F5
:1026B0007B009770906490937C0080917A00806496
:1026C00080937A0080917A0086FDFCCF809178001B
:1026D0004091790090E0942B90935B0280935A0292
:1026E0004AE552E06AEB71E0C9010E94980462E396
:1026F00070E080E090E00E94070A8091740390915E
:1027000075039A8289821C821B82BE016F5F7F4F94
:102710000E943D056FE371E08DEF92E00E94510F42
:1027200080915C0290915D02019690935D0280938E
:102730005C0264EF71E080E090E00E94070A0E9472
:102740001602F1CCAE014B5F5F4F60EC71E0C70148
:102750000E945C04AE014F5F5F4F6CEC71E0C701FB
:102760000E945C04D6CE80913C0290E0982F88278E
:1027700020913D02820F911D909338028093370281
:1027800080913E0290E0982F882720913F02820F8F
:10279000911D90933602809335028091400290E023
:1027A000982F882720914102820F911D9093340227
:1027B00080933302F2CE8091670390916803009773
:1027C00011F00E942A188091650387FD03C060E024
:1027D0000C94CB090895109263021092620248EEA5
:1027E00053E060E070E040936402509365026093B0
:1027F00066027093670286E191E090936102809394
:1028000060028DEC90E090936D0280936C028CECF2
:1028100090E090936F0280936E0288EC90E090932A
:1028200071028093700229EC30E0309373022093A0
:1028300072022AEC30E030937502209374022EEC81
:1028400030E0309377022093760210927902109252
:102850007A0210927B0210927C0210920003109276
:10286000FF024093010350930203609303037093AC
:10287000040326E231E03093FE022093FD022FEFA5
:102880003FEF30930A03209309032EE733E03093A0
:1028900079032093780390937B0380937A031092BB
:1028A0007D0310927C0386E391E0909377038093FD
:1028B000760364E070E086E793E00E948802009768
:1028C00041F026E733E0FC0131832083138212823A
:1028D00011C08091560481110BC0109253041092C4
:1028E0005204109255041092540481E080935604CF
:1028F00082E594E0909375038093740310926003D3
:102900001092660310926D0310926E0310926F0383
:102910001092700381E080936C038093690310929E
:102920006A0392E090936B0380935F0385E190E0EC
:1029300090936403809363030E94951790936803B8
:1029400080936703009761F025E1FC0111922A95BD
:10295000E9F787E090E0909362038093610308C0F9
:102960001092640310926303109262031092610349
:1029700087E08093650380916003882341F061E0E4
:1029800087E00E94CB0960E087E00E949B09E5E5B3
:10299000F1E0E491F0E0EE0FFF1FE05CFE4F859167
:1029A00094919093720380937103E8E2F1E0E491D3
:1029B000E093730382E0809352038BE08093530390
:1029C000E3E2F1E0E491E0935403E0E5F1E0E49127
:1029D000E093550380E89EE3A0E0B0E080935A03C3
:1029E00090935B03A0935C03B0935D0308950E94F2
:1029F000391508F481E00895E89409C097FB3EF486
:102A000090958095709561957F4F8F4F9F4F99233B
:102A1000A9F0F92F96E9BB279395F69587957795B9
:102A20006795B795F111F8CFFAF4BB0F11F460FF79
:102A30001BC06F5F7F4F8F4F9F4F16C0882311F0D1
:102A400096E911C0772321F09EE8872F762F05C0E5
:102A5000662371F096E8862F70E060E02AF09A9580
:102A6000660F771F881FDAF7880F9695879597F975
:102A70000895990F0008550FAA0BE0E8FEEF16160F
:102A80001706E807F907C0F012161306E407F50762
:102A900098F0621B730B840B950B39F40A2661F0D6
:102AA000232B242B252B21F408950A2609F4A14079
:102AB000A6958FEF811D811D08950E9470150C94BD
:102AC000E1150E94D31538F00E94DA1520F0952305
:102AD00011F00C94CA150C94D01511240C941516F1
:102AE0000E94F21570F3959FC1F3950F50E0551FAA
:102AF000629FF001729FBB27F00DB11D639FAA2753
:102B0000F00DB11DAA1F649F6627B00DA11D661FA1
:102B1000829F2227B00DA11D621F739FB00DA11DC2
:102B2000621F839FA00D611D221F749F3327A00D7C
:102B3000611D231F849F600D211D822F762F6A2F18
:102B400011249F5750409AF0F1F088234AF0EE0F7D
:102B5000FF1FBB1F661F771F881F91505040A9F7AA
:102B60009E3F510580F00C94CA150C9415165F3FDA
:102B7000E4F3983ED4F3869577956795B795F795E6
:102B8000E7959F5FC1F7FE2B880F911D969587955E
:102B900097F9089597F99F6780E870E060E00895DD
:102BA0009FEF80EC089500240A9416161706180665
:102BB0000906089500240A94121613061406050641
:102BC0000895092E0394000C11F4882352F0BB0FD2
:102BD00040F4BF2B11F460FF04C06F5F7F4F8F4F35
:102BE0009F4F089557FD9058440F551F59F05F3F70
:102BF00071F04795880F97FB991F61F09F3F79F01F
:102C000087950895121613061406551FF2CF4695A0
:102C1000F1DF08C0161617061806991FF1CF869522
:102C20007105610508940895E894BB276627772706
:102C3000CB0197F908955058BB27AA270E94331655
:102C40000C94E1150E94D31538F00E94DA1520F09B
:102C500039F49F3F19F426F40C94D0150EF4E09546
:102C6000E7FB0C94CA15E92F0E94F21558F3BA1726
:102C7000620773078407950720F079F4A6F50C9492
:102C800014160EF4E0950B2EBA2FA02D0B01B901EE
:102C900090010C01CA01A0011124FF27591B99F0D2
:102CA000593F50F4503E68F11A16F040A22F232FDE
:102CB000342F4427585FF3CF469537952795A7952E
:102CC000F0405395C9F77EF41F16BA0B620B730BD5
:102CD000840BBAF09150A1F0FF0FBB1F661F771F46
:102CE000881FC2F70EC0BA0F621F731F841F48F4FB
:102CF000879577956795B795F7959E3F08F0B0CF84
:102D00009395880F08F09927EE0F9795879508956A
:102D10000E949C160C94E1150E94DA1558F00E944E
:102D2000D31540F029F45F3F29F00C94CA155111D6
:102D30000C9415160C94D0150E94F21568F3992383
:102D4000B1F3552391F3951B550BBB27AA276217A7
:102D50007307840738F09F5F5F4F220F331F441FB4
:102D6000AA1FA9F335D00E2E3AF0E0E832D09150E8
:102D70005040E695001CCAF72BD0FE2F29D0660FD5
:102D8000771F881FBB1F261737074807AB07B0E818
:102D900009F0BB0B802DBF01FF2793585F4F3AF01E
:102DA0009E3F510578F00C94CA150C9415165F3FA0
:102DB000E4F3983ED4F3869577956795B795F795A4
:102DC0009F5FC9F7880F911D9695879597F908958C
:102DD000E1E0660F771F881FBB1F62177307840728
:102DE000BA0720F0621B730B840BBA0BEE1F88F737
:102DF000E09508950E9401176894B1110C9415167E
:102E000008950E94FA1588F09F5798F0B92F9927D6
:102E1000B751B0F0E1F0660F771F881F991F1AF0C5
:102E2000BA95C9F714C0B13091F00E941416B1E000
:102E300008950C941416672F782F8827B85F39F0FF
:102E4000B93FCCF3869577956795B395D9F73EF45E
:102E500090958095709561957F4F8F4F9F4F089506
:102E60000E94391508F48FEF08950E943915880BD8
:102E7000990B0895AA1BBB1B51E107C0AA1FBB1FDA
:102E8000A617B70710F0A61BB70B881F991F5A95F6
:102E9000A9F780959095BC01CD010895A1E21A2E65
:102EA000AA1BBB1BFD010DC0AA1FBB1FEE1FFF1FEE
:102EB000A217B307E407F50720F0A21BB30BE40B3E
:102EC000F50B661F771F881F991F1A9469F7609585
:102ED0007095809590959B01AC01BD01CF0108953F
:102EE000052E97FB1EF400940E94871757FD07D00C
:102EF0000E944E1707FC03D04EF40C948717509590
:102F00004095309521953F4F4F4F5F4F08959095D5
:102F10008095709561957F4F8F4F9F4F0895EE0F6D
:102F2000FF1F0590F491E02D0994CF93DF93823039
:102F3000910510F482E090E0E0917104F091720448
:102F400020E030E0C0E0D0E0309711F140815181C5
:102F500048175907C0F04817590761F482819381D7
:102F6000209719F09B838A832BC0909372048093DF
:102F7000710426C02115310519F04217530718F4C2
:102F80009A01BE01DF01EF010280F381E02DDCCF69
:102F90002115310509F1281B390B2430310590F436
:102FA00012968D919C9113976115710521F0FB018B
:102FB0009383828304C09093720480937104FD0113
:102FC000329644C0FD01E20FF31F8193919322508A
:102FD00031092D933C933AC020916F0430917004D5
:102FE000232B41F420910E0130910F013093700496
:102FF00020936F0420910C0130910D0121153105B2
:1030000041F42DB73EB74091100150911101241B9E
:10301000350BE0916F04F0917004E217F307A0F410
:103020002E1B3F0B2817390778F0AC014E5F5F4F1E
:103030002417350748F04E0F5F1F509370044093DC
:103040006F048193919302C0E0E0F0E0CF01DF9143
:10305000CF9108950F931F93CF93DF93009709F4B7
:103060008CC0FC013297138212820091710410917E
:1030700072040115110581F420813181820F931FA3
:1030800020916F04309170042817390779F5F09377
:103090007004E0936F0471C0D80140E050E0AE17B7
:1030A000BF0750F412962D913C911397AD01211555
:1030B000310509F1D901F3CF9D01DA013383228370
:1030C00060817181860F971F8217930769F4EC0165
:1030D00028813981260F371F2E5F3F4F3183208390
:1030E0008A819B8193838283452B29F4F093720418
:1030F000E093710442C01396FC93EE931297ED0196
:10310000499159919E01240F351FE217F30771F47D
:1031100080819181840F951F029611969C938E93C6
:103120008281938113969C938E931297E0E0F0E056
:10313000D80112968D919C911397009719F0F80180
:103140008C01F6CF8D919C9198012E5F3F4F820F9D
:10315000931F20916F04309170042817390769F488
:10316000309729F4109272041092710402C01382F5
:1031700012821093700400936F04DF91CF911F911E
:103180000F91089581E090E0F8940C94D018FB0121
:10319000DC018D91019080190110D9F3990B0895EC
:1031A00010E0C2EFD0E004C0FE010E948F1721960C
:0A31B000C33FD107C9F7F894FFCF21
:1031BA00FFFFFFFF00E100000000000000007304B1
:1031CA008000000000002701D70B0A02E801FC0179
:1031DA006E01000000002002D602410291036D0335
:1031EA00360200000000880200C180810000000D44
:1031FA000A00434D443A434F4E4E454354494E47C5
:10320A0000434D443A434F4E4E45435445440043D0
:10321A004D443A5354414E44425900434D443A4175
:10322A004C45525400434D443A4F4B00434D443AA7
:10323A005245414400434D443A434C4541520050A3
:10324A004D303156616C756500504D325F355661AF
:10325A006C756500504D313056616C756500726F42
:10326A00636B65744368616972006C6967687400AE
:10327A0074656D70657261747572650068756D69E3
:10328A00646974790022225C5C6208660C6E0A72B8
:10329A000D7409006E756C6C007472756500666158
:1032AA006C7365004E614E00496E66696E69747989
:0432BA0000652D007E
:00000001FF
