:100000000C94F3000C941B010C941B010C941B0129
:100010000C941B010C941B010C941B010C941B01F0
:100020000C941B010C941B010C947A0C0C94EC0C9A
:100030000C941B010C941B010C941B010C941B01D0
:100040000C941B010C941B010C941B010C941B01C0
:100050000C941B010C941B010C941B010C94300C90
:100060000C941B010C942A040C9404040C941B01A2
:100070000C941B010C941B010C941B010C941B0190
:100080000C941B010C941B010C941B010C941B0180
:100090000C941B010C941B010C941B010C941B0170
:1000A0000C941B010C941B010C941B01E806B10578
:1000B0009C05BF05B905B5055805880541094409E2
:1000C000330937093D0965096509650948094C097E
:1000D000500956095A096509600907060504010017
:1000E000080A0B0C0D0900000000240027002A005C
:1000F0002D0030000000000200090F000003040181
:10010000000C0000000000000000000000000000E3
:10011000000000000000002300260029002C002F12
:1001200000040802011040804010204080408008F8
:100130000204018040201002011080102040402065
:1001400000000000250028002B002E0031000404D0
:100150000404040304050202020204030202020270
:1001600006060606060604040202020404080B0042
:10017000020202010009040000010202000005243D
:1001800000100105240101010424020605240600D3
:10019000010705810310004009040100020A000064
:1001A000000705020240000007058302400000042A
:1001B00003090412010002EF0201404123368000CE
:1001C000010102030141726475696E6F204C4C435A
:1001D0000041726475696E6F204C656F6E61726468
:1001E0006F00D413C41311241FBECFEFDAE0DEBFBB
:1001F000CDBF24E0A4E0B2E001C01D92A137B20758
:10020000E1F712E0A0E0B1E0ECE8F1E302C0059014
:100210000D92A430B107D9F710E0C2EFD0E004C0CE
:100220002197FE010E947817C13FD107C9F70E94AC
:10023000310F0C94B9180C9400008EE592E00E94E6
:10024000490121E0892B09F420E0822F0895FC0167
:10025000918D828D981761F0828DDF01A80FB11DFD
:100260005D968C91928D9F5F9F73928F90E0089521
:100270008FEF9FEF0895FC01918D828D981731F0DB
:10028000828DE80FF11D858D90E008958FEF9FEF2F
:100290000895FC01918D228D892F90E0805C9F4F05
:1002A000821B91098F7399270895FC01848DDF01CA
:1002B000A80FB11DA35ABF4F2C91848D90E00196D9
:1002C0008F739927848FA689B7892C93A089B189C8
:1002D0008C9180648C93938D848D981306C00288D2
:1002E000F389E02D80818F7D80830895EF92FF92C6
:1002F0000F931F93CF93DF93EC0181E0888F9B8D49
:100300008C8D981305C0E889F989808185FD24C00A
:10031000F62E0B8D10E00F5F1F4F0F731127E02E8D
:100320008C8DE8120CC00FB607FCFACFE889F9896A
:10033000808185FFF5CFCE010E945501F1CF8B8DD5
:10034000FE01E80FF11DE35AFF4FF0820B8FEA899F
:10035000FB898081806207C0EE89FF896083E8891C
:10036000F98980818064808381E090E0DF91CF9182
:100370001F910F91FF90EF900895CF93DF93EC01C1
:10038000888D8823C9F0EA89FB89808185FD05C0B5
:10039000A889B9898C9186FD0FC00FB607FCF5CFEF
:1003A000808185FFF2CFA889B9898C9185FFEDCF37
:1003B000CE010E945501E7CFDF91CF91089580E0F3
:1003C00090E0892B29F00E941D0181110C940000FE
:1003D0000895CF93DF931F92CDB7DEB76983DC0119
:1003E000ED91FC910280F381E02D41E050E0BE01EF
:1003F0006F5F7F4F09950F90DF91CF91089583E054
:100400008093E9008091F200882319F08AE38093B9
:10041000E8000895FC018485958597FD0BC09FB782
:10042000F89482E08093E9008091F2009FBF90E011
:10043000019608959FB7F89482E08093E900809137
:10044000F2009FBF90E00895CF93DF93EC01888185
:100450009981009789F0DC01ED91FC910190F08188
:10046000E02D6AE070E00995009741F0FC011182EF
:1004700010821582148202C080E090E0EA81FB8144
:10048000309751F0208131812115310511F0F901AA
:10049000F9CF9183808302C09B838A83DF91CF91C0
:1004A0000895FC0126813781620F731F8481958135
:1004B0008617970738F08281938177836683820F4E
:1004C000931F089580E090E00895813051F0E8F0A6
:1004D000823061F0833079F46FE672E183E89AE369
:1004E00008956DEC7CEC8CEC9DE308956AE077ED6B
:1004F00083E29CE3089584500E94650227E137EB74
:1005000041ED58E30E944615089560E070E080E8F0
:100510009FE30895CF93DF93EC0188819981DC01FB
:10052000ED91FC910190F081E02D09952A813B81AC
:10053000820F931F9B838A83DF91CF9108957F92CF
:100540008F929F92AF92BF92CF92DF92EF92FF92E3
:100550000F931F93CF93DF936C015B017A0180911E
:100560000B01882309F46BC080915D02882309F494
:1005700066C080915E0480FF05C08091E0008260CB
:100580008093E000E70110E00AEF83E0982E90E40A
:10059000792E2AE3822E209709F448C08FB7F89469
:1005A0009092E9009091E80095FF06C09091F200CA
:1005B000272D291B922F01C090E08FBF91110AC0F7
:1005C000015009F43CC061E070E080E090E00E94DE
:1005D000EA0BE1CF292F30E0C217D3070CF49C2F90
:1005E0008FB7F8949092E9002091E80025FF1CC095
:1005F000292F30E0C21BD30BF501915020F041911F
:100600004093F100FACFA20EB31E112319F080928D
:10061000E80009C09091E80095FD06C08092E800CE
:1006200011E0209709F010E08FBFB5CF1111B6CFC0
:100630005D9884E680935F041E141F0444F081E0FB
:1006400090E0F6019383828380E090E001C0C701CF
:10065000DF91CF911F910F91FF90EF90DF90CF909E
:10066000BF90AF909F908F907F900895CF93DF932E
:100670001F92CDB7DEB7FC018485958597FD05C037
:100680002FEF3FEF358724870BC0CE0101960E94E4
:10069000EB08019719F4898190E002C08FEF9FEF7A
:1006A0000F90DF91CF9108950F931F93CF93DF9316
:1006B0001F92CDB7DEB78C01FC018485958597FF2D
:1006C0000EC0CE0101960E94EB08019719F4298112
:1006D00030E002C02FEF3FEFF80135872487F801A3
:1006E000848595850F90DF91CF911F910F9108958B
:1006F0000E94AB18CF93DF93EC01888199810E940F
:100700001C0F2A813B81820F931F9B838A83DF9179
:10071000CF9108958F929F92AF92BF92EF92FF92E6
:100720000F931F93CF93DF93CDB7DEB766970FB6C6
:10073000F894DEBF0FBECDBF7C011E8A8E010A5E1B
:100740001F4F8AE0882E912CA12CB12CCB01BA012D
:10075000A50194010E943717942F852F605DF80141
:1007600062938F01A901692F782F41155105610509
:10077000710561F7BF01C7010E947A0366960FB643
:10078000F894DEBF0FBECDBFDF91CF911F910F91C7
:10079000FF90EF90BF90AF909F908F900895FF9241
:1007A0000F931F93CF93DF936115710549F464EEA6
:1007B00071E0DF91CF911F910F91FF900C947A031C
:1007C0008B01EC0162E2CE010E948A02F801619184
:1007D0008F01662351F0E5EDF1E0F080FF2099F301
:1007E0009181961759F03296F8CF62E2CE01DF91EF
:1007F000CF911F910F91FF900C948A026CE5CE016E
:100800000E948A026F2DDFCF1F920F920FB60F92B8
:1008100011242F933F934F935F936F937F938F9305
:100820009F93AF93BF93EF93FF938EE592E00E9467
:100830005501FF91EF91BF91AF919F918F917F9162
:100840006F915F914F913F912F910F900FBE0F903D
:100850001F9018951F920F920FB60F9211242F938D
:100860008F939F93EF93FF93E0916E02F0916F024D
:100870008081E0917402F091750282FD12C0908136
:10088000809177028F5F8F7320917802821751F0E9
:10089000E0917702F0E0E25AFD4F958F8093770266
:1008A00001C08081FF91EF919F918F912F910F90C7
:1008B0000FBE0F901F901895CF92DF92EF92FF928C
:1008C0000F931F93CF93DF938C017B016A01FC018F
:1008D000C281D381209759F06A817B81C7010E9430
:1008E000B018892B61F00990D881C02DF3CFC801D1
:1008F0000E942402EC01892B89F0FB82EA82F60136
:1009000080819181A281B3812AE030E03D832C83F4
:100910008E839F83A887B98781E001C080E0DF9143
:10092000CF911F910F91FF90EF90DF90CF9008959E
:10093000CF92DF92EF92FF920F931F93CF93DF93AB
:100940008C017B016A01FC01C281D381209759F09F
:100950006A817B81C7010E94B018892B61F00990E0
:10096000D881C02DF3CFC8010E942402EC01892B4D
:10097000F9F0FB82EA82F6018081918197FD07C040
:10098000092E000CAA0BBB0B24E030E009C09195A6
:1009900081959109092E000CAA0BBB0B25E030E0D4
:1009A0003D832C838E839F83A887B98781E001C014
:1009B00080E0DF91CF911F910F91FF90EF90DF903A
:1009C000CF900895CF93DF93C1E0D0E040E056E9A7
:1009D00060E070E0CE010E943F082196C730D1054B
:1009E000A9F7DF91CF910C948007CF93DF93C0E0FC
:1009F000D0E040E050E0BA01CE010E943F080E94E2
:100A000080072196C730D105A1F7DF91CF910895D6
:100A10000F931F93CF93DF938C01EB016BE7CE0114
:100A20000E948A02F8010281138101151105A9F0C3
:100A3000F80162817381CE010E94CF036AE3CE0187
:100A40000E948A02BE01C80104960E943A05F8017C
:100A5000008111810115110541F46DE7CE01DF918F
:100A6000CF911F910F910C948A026CE2CE010E94EB
:100A70008A02DBCF4F925F926F927F929F92AF92EA
:100A8000BF92CF92DF92EF92FF920F931F93CF937B
:100A9000DF938C01EB01FC01A080B180F8E0AF1680
:100AA000B10408F07BC0F501EA5AFF4F0C947817A7
:100AB000FC01028113816BE5CE010E948A02F801DC
:100AC000028113810115110559F0BE01C80102967A
:100AD0000E943A05F801008111810115110599F470
:100AE0006DE5CE01DF91CF911F910F91FF90EF90B7
:100AF000DF90CF90BF90AF909F907F906F905F906E
:100B00004F900C948A026CE2CE010E948A02DACFE6
:100B1000FC0182819381DF91CF911F910F91FF9012
:100B2000EF90DF90CF90BF90AF909F907F906F90AD
:100B30005F904F900C940805FC0162817381CE0197
:100B4000DF91CF911F910F91FF90EF90DF90CF90A9
:100B5000BF90AF909F907F906F905F904F900C945C
:100B6000CF03FC016281738157C06DE2CE010E9408
:100B70008A02F801428153816481758117C1FC01A9
:100B800082819381A481B581892B8A2B8B2B19F4C7
:100B90006EEE71E041C069EE71E03EC088EF982EC4
:100BA0009A0CF801C280D380E480F580A7019601F9
:100BB000C701B6010E941E17882319F064EF71E087
:100BC0002BC020E030E0A901C701B6010E94E0146B
:100BD00087FF08C06DE2CE010E948A02F7FAF09406
:100BE000F7F8F09426013701E89477F82FEF3FEFFC
:100BF0004FE75FE7C301B2010E941E1781111EC0BB
:100C00002FEF3FEF4FE75FE7C301B2010E94E0140F
:100C10001816A4F468EF71E0CE01DF91CF911F9117
:100C20000F91FF90EF90DF90CF90BF90AF909F908B
:100C30007F906F905F904F900C947A0320E030E0AB
:100C40004AE754E4C701B6010E94191700E010E01A
:100C500018160CF12FE632E143E85AE3C701B6015A
:100C60000E94E01487FF37C016C020E030E040E863
:100C70005FE3C701B6010E94E01487FF15C0015071
:100C8000110920E030E040E251E4C701B6010E94C2
:100C900046156B017C0120E030E0A901C701B601D7
:100CA0000E94E0148111E1CF20E030E040E251E405
:100CB000C701B6010E94191718166CF40F5F1F4F79
:100CC00020E030E040E251E4C701B6010E94711615
:100CD0006B017C01E9CF892D0E94650220E030E0A4
:100CE00040E05FE30E9446159B01AC01C701B601DD
:100CF0000E9405162B013C010E94EA166B017C0143
:100D00000E94E5149B01AC01C301B2010E940416CC
:100D10002B013C01B701A601CE010E948A03992054
:100D200021F06EE2CE010E948A02F8E0AF1619F1BE
:100D300020E030E040E251E4C301B2010E944615D8
:100D40002B013C010E94E316F62E062E000C770BB9
:100D5000880B990B0E94E7149B01AC01C301B201FF
:100D60000E9404162B013C0160E36F0DCE010E942E
:100D70008A02AA94DACF17FF0EC061E072E0CE01BA
:100D80000E947A0344275527401B510B052E000C67
:100D9000660B770B0BC001151105D1F065E6CE018E
:100DA0000E948A02A801110F660B770BCE01DF911A
:100DB000CF911F910F91FF90EF90DF90CF90BF9058
:100DC000AF909F907F906F905F904F900C948A03AC
:100DD000DF91CF911F910F91FF90EF90DF90CF9017
:100DE000BF90AF909F907F906F905F904F900895CD
:100DF0008F929F92AF92BF92CF92DF92EF92FF922B
:100E0000CF93DF93A0915203882311F03A2F01C0B2
:100E100030E08091530390E0880F991F8D5E9E4FC4
:100E2000C0905803D0905903E0905A03F0905B03B0
:100E300040E050E0BA01FC01C591D49128812A23F9
:100E400023130FC04A015B012FEF821A920AA20AF4
:100E5000B20A4C155D056E057F0538F4B501A40195
:100E6000EACF342F252FCB0104C030E020E080E012
:100E700090E0632F722FDF91CF91FF90EF90DF9082
:100E8000CF90BF90AF909F908F9008950F931F9336
:100E90000E94240C6093660270936702809368023C
:100EA00090936902E0915E02F0915F020680F78103
:100EB000E02D8EE592E0099597FF1FC00E94240C5B
:100EC00000916602109167022091680230916902D8
:100ED000DC01CB01801B910BA20BB30B00916202D2
:100EE000109163022091640230916502801791078E
:100EF000A207B307B8F28FEF9FEF1F910F910895EC
:100F00000F931F93CF93DF93CDB7DEB729970FB61B
:100F1000F894DEBF0FBECDBF80916503909166034C
:100F2000892B09F4A1C00E94C50B00916B0310919D
:100F30006C0320916D0330916E03DC01CB01801BAB
:100F4000910BA20BB30BC297A105B10560F3F89406
:100F500080916103909162039A838983E091650394
:100F6000F0916603DF0111968081898790915D037E
:100F7000E0916F03F091700380917103992309F45C
:100F80002EC09081982B98879081809589238F839C
:100F90008F818C8388E08B8358856F8149853B8165
:100FA0002C8189819A81508347FD252F3A95208392
:100FB000262F39F0441F00C000006083000000C0ED
:100FC000F2CF38E04D9160830000019761F7F09314
:100FD0007003E0936F0349873B832C8338C0908173
:100FE000982B98879081809589238F838F818E831A
:100FF00088E08D8358856F8149853D812E81898167
:101000009A81508347FD252F00C000C0208300C077
:1010100000C000C000C000C060830000262F3A95C9
:1010200041F0441F000000C000C000C000C000C06C
:10103000E8CF38E04D9100C0608300C0019709F708
:10104000F0937003E0936F0349873D832E839A8367
:10105000898378940E94C50B60936B0370936C0333
:1010600080936D0390936E0329960FB6F894DEBFBC
:101070000FBECDBFDF91CF911F910F9108958F9239
:101080009F92AF92BF92CF92DF92EF92FF92209108
:101090005F03309160038217930708F052C04B0141
:1010A000AA24BB24E82DC52ED62EE72EFF24FC2D26
:1010B000342F20916403222361F0829E4001112489
:1010C000E92DC29E60011124FD2D429FD001112403
:1010D0003B2FF0906A03E0906703A0916503B09105
:1010E0006603FE1008C0AC01440F551F840F951F06
:1010F0008A0F9B1F14C0880F991F880F991F8A0F92
:101100009B1F472F552766277727DC01AF0DB11DA1
:10111000222321F0429FA0011124452F4C932091BE
:101120006703DC01A20FB11DEC9320916803DC0181
:10113000A20FB11DFC9320916903FC01E20FF11D88
:101140003083FF90EF90DF90CF90BF90AF909F9053
:101150008F9008951F93CF93DF9311E0180F209184
:1011600064031217A1F1C0916503D0916603215069
:10117000B9F08F3F59F430E040E050E06FEF7FEF7F
:1011800080E090E00E945917B9010CC0812F90E0D7
:10119000982F88270197622F70E00E94231702C0C2
:1011A00060E070E0FE014091610350916203CF0165
:1011B0008C1B9D0B8417950740F44081469FC0010E
:1011C000479F900D11249193EECF10936403DF910C
:1011D000CF911F910895FC0180915D02811103C0A0
:1011E0008FEF9FEF08959FB7F89482E08093E90016
:1011F0002091F20030E01216130614F421E030E0E2
:101200002115310559F0289884E680935C0280917D
:10121000F10080838091F200882319F09FBFC901FB
:1012200008958BE68093E800F9CF809148048111FE
:101230000DC082E08093440484E0809345041092C2
:1012400047041092460481E08093480484E494E0CB
:10125000089590E0FC013197EF30F105B0F5E25AC6
:10126000FF4F0C947817809180008F7703C0809196
:1012700080008F7D80938000089580918000877F1B
:10128000F9CF84B58F7702C084B58F7D84BD089572
:10129000809190008F7707C0809190008F7D03C070
:1012A00080919000877F8093900008958091C00086
:1012B0008F7703C08091C0008F7D8093C000089518
:1012C0008091C200877F8093C20008951F93CF93BF
:1012D000DF93282F30E0F901EC50FF4F8491F901A2
:1012E000EF5DFE4FD491F901E25BFE4FC491CC2338
:1012F000C9F0162F81110E942909EC2FF0E0EE0FA2
:10130000FF1FE05CFE4FA591B4918FB7F8941111C7
:1013100005C09C91ED2FE095E92302C0EC91ED2BE7
:10132000EC938FBFDF91CF911F910895CF93DF93FF
:1013300090E0FC01EF5DFE4F2491FC01E25BFE4F6B
:101340008491882361F190E0880F991FFC01EA5194
:10135000FF4FC591D491FC01E05CFE4FA591B49183
:10136000611109C09FB7F8948881209582238883F2
:10137000EC912E230BC0623061F49FB7F894388152
:10138000822F809583238883EC912E2B2C939FBFF3
:1013900006C08FB7F894E8812E2B28838FBFDF918A
:1013A000CF910895CF92DF92EF92FF920F931F9308
:1013B000CF93DF93CDB7DEB7C054D1400FB6F894CA
:1013C000DEBF0FBECDBF0E94240C009154031091CC
:1013D000550320915603309157036B017C01C01ACD
:1013E000D10AE20AF30A40EDC41647E0D406E1044C
:1013F000F10418F480915C03BCC0609354037093B3
:101400005503809356039093570310924F03109205
:101410004E0310924D0310924C0310924B0361E067
:10142000809150030E9466096AEF70E080E090E0CE
:101430000E94EA0B61E0809150030E94960960E0EF
:10144000809150030E94660964E170E080E090E0C2
:101450000E94EA0BF89461E0809150030E946609B3
:101460008BE990E00197F1F762E0809150030E94D0
:10147000960983E290E00197F1F780E00E94F80678
:10148000672B682B692B21F410925C0378943EC083
:1014900081E00E94F806672B682B692BA9F38E0167
:1014A0000F5F1F4F6E018FEBC81A8EEFD80A7801BD
:1014B00080E00E94F806F701608371838283938342
:1014C00081E00E94F806F701648375838683978321
:1014D000F8E0EF0EF11CEC14FD0451F7789420E0D5
:1014E00030E0F8014081518162817381C480D580F0
:1014F000E680F780411551056105710529F0C11499
:10150000D104E104F10421F410925C0380E031C0C5
:10151000F90183E0F595E7958A95E1F7E55BFC4FE6
:101520008081880F4C155D056E057F0508F481608C
:1015300080832F5F3F4F085F1F4F2832310589F6A8
:1015400020914F0330E040914B0380914C0390E099
:10155000840F911D40914D03840F911D40914E03C6
:10156000840F911D99272817390771F681E0809320
:101570005C03C05CDE4F0FB6F894DEBF0FBECDBF7C
:10158000DF91CF911F910F91FF90EF90DF90CF905F
:101590000895409162045091630420916004309159
:1015A000610442175307B4F49091E8009570E1F399
:1015B0009091E80092FD19C08093F100809162043F
:1015C0009091630401968F739927892B19F48EEFFC
:1015D0008093E80080916204909163040196909357
:1015E00063048093620481E0089580E00895CF92BF
:1015F000DF92EF92FF920F931F93CF93DF931F928F
:10160000CDB7DEB7182F062FE42E862F880F8E5FFA
:1016100099830E94C90A83E00E94C90AF12EC12E53
:101620009981D92E8C2D8F19801798F4F601E7FE39
:1016300002C0849101C080810E94C90A182F80E0F5
:101640000E94C90A8123FFEFCF1ADF0A8111EACF76
:1016500001C081E00F90DF91CF911F910F91FF901A
:10166000EF90DF90CF900895DF92EF92FF920F936B
:101670001F93CF93DF93D82E8A017B01E40EF51ED2
:10168000EB01CE15DF0571F0D7FE03C0FE0184919A
:1016900001C088810E94C90A21968111F2CF8FEF83
:1016A0009FEF01C0C801DF91CF911F910F91FF9073
:1016B000EF90DF900895615030F02091F100FC012F
:1016C00020830196F8CF289884E680935C020895E1
:1016D000CF92DF92EF92FF920F931F93CF93DF93FE
:1016E0006C017A018B01C0E0D0E0CE15DF0589F0F6
:1016F000D8016D918D01D601ED91FC910190F081A1
:10170000E02DC6010995892B11F47E0102C02196B6
:10171000ECCFC701DF91CF911F910F91FF90EF9018
:10172000DF90CF9008950F931F93CF93DF931F9275
:10173000CDB7DEB782E0898342E450E06DE671E028
:1017400080E80E94340B0E941509DC0112960D916D
:101750001C9113970115110569F0D801ED91FC91C9
:101760000280F381E02DBE016F5F7F4FC8010995B4
:1017700097FF07C089810F90DF91CF911F910F9143
:101780000895F80100851185E5CF3FB7F894809161
:10179000690490916A04A0916B04B0916C0426B521
:1017A000A89B05C02F3F19F00196A11DB11D3FBF99
:1017B000BA2FA92F982F8827820F911DA11DB11D27
:1017C000BC01CD0142E0660F771F881F991F4A9523
:1017D000D1F708958F929F92AF92BF92CF92DF92EE
:1017E000EF92FF926B017C010E94C50B4B015C01E3
:1017F000C114D104E104F104F1F00E94C50BDC0135
:10180000CB0188199909AA09BB09883E9340A10513
:10181000B10570F321E0C21AD108E108F10888EEA1
:10182000880E83E0981EA11CB11CC114D104E104F0
:10183000F10419F7DDCFFF90EF90DF90CF90BF90CC
:10184000AF909F908F9008952FB7F89460916504A2
:101850007091660480916704909168042FBF089589
:101860001F920F920FB60F9211242F933F938F93D5
:101870009F93AF93BF938091650490916604A0916C
:101880006704B09168043091640423E0230F2D377E
:1018900020F40196A11DB11D05C026E8230F029674
:1018A000A11DB11D20936404809365049093660488
:1018B000A0936704B09368048091690490916A04CE
:1018C000A0916B04B0916C040196A11DB11D809391
:1018D000690490936A04A0936B04B0936C04BF9165
:1018E000AF919F918F913F912F910F900FBE0F90CD
:1018F0001F9018951F920F920FB60F9211248F937D
:101900009F938091E1009091E100937F9093E1009B
:1019100083FF0FC01092E90091E09093EB001092CA
:10192000EC0092E39093ED0010925D0298E09093AA
:10193000F00082FF20C093E09093E9009091F200C4
:10194000992319F09AE39093E80090915F0499230A
:1019500039F090915F04915090935F04992389F13D
:1019600090915C02992339F090915C029150909390
:101970005C02992341F184FF10C08091E2008E7EC9
:1019800081608093E2008091E1008F7E8093E1008E
:1019900080915E048E7E806111C080FF16C08091B0
:1019A000E2008E7E80618093E2008091E1008E7E75
:1019B0008093E10080915E048E7E816080935E045E
:1019C00004C05D9ACDCF289AD6CF9F918F910F906A
:1019D0000FBE0F901F9018951F920F920FB60F9287
:1019E0001124CF92DF92EF92FF920F931F932F93C8
:1019F0003F934F935F936F937F938F939F93AF9397
:101A0000BF93EF93FF93CF93DF93CDB7DEB76C9780
:101A1000DEBFCDBF1092E9008091E80083FFEDC1E9
:101A200068E0CE0145960E945B0B82EF8093E80050
:101A30008D8987FF05C09091E80090FFFCCF03C01F
:101A40009EEF9093E800982F907609F0C6C09E898B
:101A50002F89188D91110CC0803829F480915D0474
:101A60008093F10002C01092F1001092F10048C181
:101A7000422F50E0512B913051F4811141C141303E
:101A8000510509F03DC180915D048D7F0BC09330FD
:101A900061F4811135C14130510509F031C18091A6
:101AA0005D04826080935D042BC1953041F4809188
:101AB000E80080FFFCCF20682093E30021C196302E
:101AC00009F05FC0EB8CFC8C1092E900109263046B
:101AD00010926204123091F5109261041092600429
:101AE0000E94930B99E0BE016F5F7F4FDB01E92FEE
:101AF0001D92EA95E9F799831A8391E09E8390EA13
:101B000098879AEF99872091620430916304275F48
:101B10003F4F3C832B838D831092E9001092630426
:101B200010926204F0926104E092600449E050E097
:101B300080E00E94340B0E94930BE2C0F09261049B
:101B4000E09260040E941509DC011296ED90FC9071
:101B50001397E114F10409F4C0C0D701ED91FC9191
:101B60000480F581E02DBE016B5E7F4FC7010995B2
:101B7000009719F00CF0C4C0C7C0F701E084F184ED
:101B8000E8CF973009F4C0C0983021F481E0809309
:101B9000F100B6C0993009F0B3C0837009F0B4C049
:101BA000E9E3F1E081E021E036E39081992361F0FF
:101BB0008093E9002093EB0091919093EC00309397
:101BC000ED008F5F873089F78EE78093EA001092EF
:101BD000EA008F8980935D0293C08B8D9C8D10925B
:101BE000E900109263041092620490936104809360
:101BF0006004898D811156C08E899D89913A59F46E
:101C0000813209F081C047E050E064E071E080E09B
:101C10000E94340B75C0913209F076C0833289F48A
:101C2000888D90E0982F88272F89822BA0E0B0E044
:101C30008093000190930101A0930201B0930301EE
:101C40005FC0803269F48091E80082FFFCCF67E0DA
:101C500084E091E00E945B0B8BEF8093E80006C06C
:101C6000823209F04DC08F8980930B0180915C0412
:101C7000882319F0EEEFFAE002C0E0E0F8E080918E
:101C8000040190910501A0910601B0910701803BEC
:101C90009440A105B10509F07BC080910B0180FF44
:101CA00093C076C00E941509DC0112960D911C911B
:101CB00013970115110541F1D801ED91FC910190A7
:101CC000F081E02DBE016B5E7F4FC8010995811147
:101CD00017C0F80100851185ECCF113009F44EC012
:101CE000133091F48F89882309F445C0823081F440
:101CF00040E860E181ED91E00E94F70A882321F03D
:101D00008EEF8093E80079C081E28093EB0075C08C
:101D1000813029F440E86BE085EC91E0EDCF833031
:101D200099F70E941509DC011296ED90FC9013972B
:101D30008E010F5F1F4F6801E114F10479F0D701A4
:101D4000ED91FC910680F781E02DB801C70109955E
:101D5000080F111DF701E084F184EECFD8011C9229
:101D6000F60101900020E9F73197BF016C197D0958
:101D700040E0C601C1CF6FEA71E002C063EB71E0E1
:101D80006115710509F2FB01449150E080E840CFF4
:101D90000FB6F894A89580916000886180936000E8
:101DA000109260000FBEA895EE3F2AE0F20739F0CE
:101DB0008091FE0A9091FF0A91838083A1CF1092B7
:101DC000FF0A1092FE0A9CCFEE3F8AE0F80731F03E
:101DD000808191819093FF0A8093FE0A87E797E7BD
:101DE000918380839BE088E10FB6F894A895809357
:101DF00060000FBE9093600083CF6C960FB6F8948E
:101E0000DEBF0FBECDBFDF91CF91FF91EF91BF91AC
:101E1000AF919F918F917F916F915F914F913F9182
:101E20002F911F910F91FF90EF90DF90CF900F9027
:101E30000FBE0F901F9018956115710579F0FB0189
:101E400001900020E9F73197AF01461B570BDC01E9
:101E5000ED91FC910280F381E02D099480E090E007
:101E60000895CF93DF93CDB7DEB728970FB6F894D8
:101E7000DEBF0FBECDBF789484B5826084BD84B5CB
:101E8000816084BD85B5826085BD85B5816085BD75
:101E900080916E00816080936E001092810080912D
:101EA00081008260809381008091810081608093B5
:101EB00081008091800081608093800080919100FA
:101EC0008260809391008091910081608093910065
:101ED000809190008160809390008091C100846027
:101EE0008093C1008091C10082608093C100809185
:101EF000C10081608093C1008091C30081608093A4
:101F0000C3008091C00082608093C0008091C200B5
:101F100081608093C20080917A00846080937A000F
:101F200080917A00826080937A0080917A0081604B
:101F300080937A0080917A00806880937A00109272
:101F40005D0210925D0410925E048091D700816062
:101F50008093D70080EA8093D80089B5806189BDDD
:101F600089B5826089BD09B400FEFDCF61E070E0F3
:101F700080E090E00E94EA0B8091D8008F7C806125
:101F80008093D8008091E000807F8093E000809172
:101F9000E1008E7E8093E1008DE08093E200559A0F
:101FA000209AEEEFFFE7859194918B3F9C4D19F4B9
:101FB00081E080935C048FEF9FEF90930803809300
:101FC0000703E0916E02F0916F0282E08083E0915E
:101FD0006A02F0916B021082E0916C02F0916D0246
:101FE0008FEC808310927602E0917202F09173027E
:101FF00086E08083E0917002F091710280818061BF
:102000008083E0917002F09171028081886080830A
:10201000E0917002F0917102808180688083E0918C
:102020007002F091710280818F7D80838CED95E04C
:10203000A0E0B0E08093620290936302A0936402F8
:10204000B09365028093FF0290930003A093010375
:10205000B09302038091630387FD08C061E00E9492
:10206000960960E0809163030E94660981E0809395
:102070005E0362E0809150030E94960980E398EF2E
:10208000AFEFBFEF8093540390935503A093560393
:10209000B093570362E084E00E94960910922502F3
:1020A0001092240285E2C82E81E0D82E92E5A92E56
:1020B00091E0B92E2FED822E20E0922E8BEF92E050
:1020C0000E940A0221E0181619060CF020E0209365
:1020D0002602222309F46EC18BEF92E00E943603A0
:1020E0002091240230912502F901EC5FFD4F80839D
:1020F0008A3009F051C1108264E072E08BEF92E007
:102100000E941C0F6FE371E08BEF92E00E941C0FA6
:10211000109225021092240262E471E084E092E0C1
:102120000E94B018892B39F504E0602E712CEE2442
:10213000E394F12C40E056E960E070E0C7010E94B2
:102140003F080E94800768EC70E080E090E00E9409
:10215000EA0B40E050E0BA01C7010E943F088FEF50
:10216000E81AF80AE7E0EE16F10421F7F1E06F1A39
:102170007108E9F61FC161E571E084E092E00E9418
:10218000B018892BD9F48AE00E94AA08EE24E394BF
:10219000F12C4DE65DE267ED70E0C7010E943F085B
:1021A0000E9480072FEFE21AF20A87E0E816F10496
:1021B00081F760ED77E080E090E0E0C06FE571E0EE
:1021C00084E092E00E94B018892B11F50E94E2048D
:1021D000FF24F3948F2D0E94AA080E94800762E3D7
:1021E00070E080E090E00E94EA0BF394E2E3FE12DC
:1021F000F1CF8F2D0E94AA080E94800762E370E051
:1022000080E090E00E94EA0BFA94F110F2CFD2C085
:102210006BE671E084E092E00E94B018892B09F02F
:102220007AC08BE40E94AA080E94F50441E053E2C0
:102230006FEF70E081E090E00E943F0841E053E2E0
:102240006FEF70E083E090E00E943F0841E053E2CE
:102250006FEF70E085E090E00E943F080E948007E9
:102260006AEF70E080E090E00E94EA0B40E050E00E
:10227000BA0181E090E00E943F0840E050E0BA01DE
:1022800083E090E00E943F0840E050E0BA0185E022
:1022900090E00E943F080E9480076AEF70E080E0B3
:1022A00090E00E94EA0B41E053E26FEF70E082E0C1
:1022B00090E00E943F0841E053E26FEF70E084E05D
:1022C00090E00E943F0841E053E26FEF70E086E04B
:1022D00090E00E943F080E9480076AEF70E080E073
:1022E00090E00E94EA0B40E050E0BA0182E090E00A
:1022F0000E943F0840E050E0BA0184E090E00E9474
:102300003F0840E050E0BA0186E090E00E943F08BC
:102310000E9480074FC065E771E084E092E00E9470
:10232000B018892B19F40E94E20444C06CE771E0F4
:1023300084E092E00E94B018892B19F58AE00E948F
:10234000AA0843EB51E762E270E080E090E00E946F
:102350003F080E94800768EC70E080E090E00E94F7
:10236000EA0B40E050E0BA0180E090E00E943F08B4
:102370000E94800768EC70E080E090E00E94EA0B29
:1023800019C065E871E084E092E00E94B018892BE2
:1023900089F40E94F5040EC0203231053CF42F5F11
:1023A0003F4F309325022093240204C0109225024F
:1023B00010922402E0907203F090730364EF71E0D6
:1023C00080E090E00E94EA0B0E94D2098823C9F1C4
:1023D000809151038B3029F0A0F18551823048F073
:1023E00030C060914D0370E080E090E00E94E51401
:1023F0002CC070904D03672D6F7770E080E090E007
:102400000E94E71420E030E040E853E40E944615C3
:102410001B012C0160914E0370E080E090E00E946F
:10242000E7149B01AC01C201B1010E9405162DEC1D
:102430003CEC4CEC5DE30E94461577FE06C09058DC
:1024400004C060E070E080EC9FE76D837E838F8343
:1024500098870E94D2098823A9F1809151038B307B
:1024600039F180F18551823068F560914B0370E05D
:1024700080E090E00E94E51420E030E040E853E482
:102480000E9446152B013C0160914C0370E080E0F6
:1024900090E00E94E7149B01AC01C301B2010E94CD
:1024A00005162DEC3CEC4CEC5DE30E94461507C094
:1024B00060914B0370E080E090E00E94E5142B01F6
:1024C0003C0106C0412C512CA0EC6A2EAFE77A2EBD
:1024D00049825A826B827C826D817E818F81988550
:1024E0009B01AC010E941E17882309F414C1A301AB
:1024F0009201C301B2010E941E17882309F40BC187
:10250000E0907203F09073030E94460797FD06C0A7
:1025100082349105C9F780E090E002C08FEF9FEF11
:10252000892B91F5F9E36F2EF2E07F2E23010E94B3
:10253000460797FF07C0809139028D3429F520E0C6
:1025400030E009C0F20181932F01F8E54F16F2E067
:102550005F0669F7F0CFF30181913F01280F311D2C
:10256000F6E56F16F2E07F06B1F72E5B3F4F8091E4
:10257000560290E0982F882740915702840F911DB2
:102580002817390709F4D8C080912B0281110DC09A
:102590000E94240C609327027093280280932902E2
:1025A00090932A0221E020932B020E94240C409059
:1025B0002702509028026090290270902A02DC01C4
:1025C000CB0184199509A609B709883E9340A10556
:1025D000B105F8F00E94240C609327027093280242
:1025E0008093290290932A0247E352E06FE871E05A
:1025F000C7010E94980445E352E069E971E0C70110
:102600000E94980443E352E064EA71E0C7010E942B
:102610009804E0907203F0907303E8EFF0E0849187
:10262000F6016490F50174907720A1F081110E9469
:102630002909E72DF0E0EE0FFF1FED5EFE4FA5919B
:10264000B4918C91682231E020E009F430E0832FCE
:10265000922F02C080E090E0F1E08F279093590222
:102660008093580248E552E06EEA71E0C7010E948B
:1026700098042091720330917303F4019491809136
:102680007B0093FB002700F910E0A80165E0440FF0
:10269000551F6A95E1F78F7D482B40937B0097701B
:1026A000906490937C0080917A00806480937A009B
:1026B00080917A0086FDFCCF80917800409179006E
:1026C00090E0942B90935B0280935A024AE552E08B
:1026D0006AEB71E0C9010E94980462E370E080E057
:1026E00090E00E94EA0B80917203909173032BEFAC
:1026F00032E03A8329831C821B82BE016F5F7F4FC9
:102700000E9408056FE371E08BEF92E00E941C0FBE
:102710000E94DF01D3CCAE014B5F5F4F60EC71E0F4
:10272000C7010E945C04AE014F5F5F4F6CEC71E02B
:10273000C7010E945C04E4CE80913C0290E0982F97
:10274000882720913D02820F911D9093380280933B
:10275000370280913E0290E0982F882720913F0217
:10276000820F911D90933602809335028091400232
:1027700090E0982F882720914102820F911D90931D
:1027800034028093330200CF8091650390916603F9
:10279000009711F00E9413188091630387FD03C016
:1027A00060E00C9496090895109261021092600204
:1027B00048EE53E060E070E04093620250936302A1
:1027C000609364027093650286E191E090935F02EA
:1027D00080935E028DEC90E090936B0280936A028E
:1027E0008CEC90E090936D0280936C0288EC90E00A
:1027F00090936F0280936E0229EC30E03093710267
:10280000209370022AEC30E030937302209372021E
:102810002EEC30E030937502209374021092770210
:10282000109278021092790210927A021092FE02AF
:102830001092FD024093FF02509300036093010346
:102840007093020326E231E03093FC022093FB02F6
:102850002FEF3FEF30930803209307032CE733E07B
:1028600030937703209376039093790380937803D2
:1028700010927B0310927A0386E391E090937503A4
:102880008093740364E070E084E793E00E94510257
:10289000009741F024E733E0FC0131832083138269
:1028A000128211C08091540481110BC01092510406
:1028B00010925004109253041092520481E08093BD
:1028C000540480E594E09093730380937203109214
:1028D0005E031092640310926B0310926C031092CB
:1028E0006D0310926E0381E080936A038093670307
:1028F0001092680392E09093690380935D0385E1F1
:1029000090E090936203809361030E947E179093FE
:10291000660380936503009761F025E1FC01119245
:102920002A95E9F787E090E09093600380935F0336
:1029300008C010926203109261031092600310921B
:102940005F0387E08093630380915E03882341F0F7
:1029500061E087E00E94960960E087E00E946609D6
:10296000E5E5F1E0E491F0E0EE0FFF1FE05CFE4FE3
:10297000859194919093700380936F03E8E2F1E066
:10298000E491E093710382E0809350038BE08093A5
:102990005103E3E2F1E0E491E0935203E0E5F1E07A
:1029A000E491E093530380E89EE3A0E0B0E08093DD
:1029B000580390935903A0935A03B0935B0308956F
:1029C0000E94221508F481E00895E89409C097FB5D
:1029D0003EF490958095709561957F4F8F4F9F4FF6
:1029E0009923A9F0F92F96E9BB279395F69587953A
:1029F00077956795B795F111F8CFFAF4BB0F11F4FD
:102A000060FF1BC06F5F7F4F8F4F9F4F16C08823A3
:102A100011F096E911C0772321F09EE8872F762FD9
:102A200005C0662371F096E8862F70E060E02AF01A
:102A30009A95660F771F881FDAF7880F9695879506
:102A400097F90895990F0008550FAA0BE0E8FEEFDB
:102A500016161706E807F907C0F012161306E40762
:102A6000F50798F0621B730B840B950B39F40A265B
:102A700061F0232B242B252B21F408950A2609F439
:102A8000A140A6958FEF811D811D08950E945915C3
:102A90000C94CA150E94BC1538F00E94C31520F092
:102AA000952311F00C94B3150C94B91511240C94C2
:102AB000FE150E94DB1570F3959FC1F3950F50E052
:102AC000551F629FF001729FBB27F00DB11D639FE0
:102AD000AA27F00DB11DAA1F649F6627B00DA11D86
:102AE000661F829F2227B00DA11D621F739FB00D2C
:102AF000A11D621F839FA00D611D221F749F33279C
:102B0000A00D611D231F849F600D211D822F762F34
:102B10006A2F11249F5750409AF0F1F088234AF011
:102B2000EE0FFF1FBB1F661F771F881F915050407D
:102B3000A9F79E3F510580F00C94B3150C94FE1537
:102B40005F3FE4F3983ED4F3869577956795B79504
:102B5000F795E7959F5FC1F7FE2B880F911D96951E
:102B6000879597F9089597F99F6780E870E060E08E
:102B700008959FEF80EC089500240A941616170616
:102B800018060906089500240A941216130614065E
:102B900005060895092E0394000C11F4882352F0C1
:102BA000BB0F40F4BF2B11F460FF04C06F5F7F4F79
:102BB0008F4F9F4F089557FD9058440F551F59F060
:102BC0005F3F71F04795880F97FB991F61F09F3F1A
:102BD00079F087950895121613061406551FF2CF43
:102BE0004695F1DF08C0161617061806991FF1CF93
:102BF00086957105610508940895E894BB276627BA
:102C00007727CB0197F908955058BB27AA270E9430
:102C10001C160C94CA150E94BC1538F00E94C315EE
:102C200020F039F49F3F19F426F40C94B9150EF4F2
:102C3000E095E7FB0C94B315E92F0E94DB1558F3E0
:102C4000BA17620773078407950720F079F4A6F591
:102C50000C94FD150EF4E0950B2EBA2FA02D0B0150
:102C6000B90190010C01CA01A0011124FF27591BD1
:102C700099F0593F50F4503E68F11A16F040A22FD7
:102C8000232F342F4427585FF3CF46953795279548
:102C9000A795F0405395C9F77EF41F16BA0B620B47
:102CA000730B840BBAF09150A1F0FF0FBB1F661F8E
:102CB000771F881FC2F70EC0BA0F621F731F841FD1
:102CC00048F4879577956795B795F7959E3F08F0F7
:102CD000B0CF9395880F08F09927EE0F97958795B9
:102CE00008950E9485160C94CA150E94C31558F0C9
:102CF0000E94BC1540F029F45F3F29F00C94B315F5
:102D000051110C94FE150C94B9150E94DB1568F353
:102D10009923B1F3552391F3951B550BBB27AA2794
:102D200062177307840738F09F5F5F4F220F331FCE
:102D3000441FAA1FA9F335D00E2E3AF0E0E832D096
:102D400091505040E695001CCAF72BD0FE2F29D099
:102D5000660F771F881FBB1F261737074807AB076B
:102D6000B0E809F0BB0B802DBF01FF2793585F4FE0
:102D70003AF09E3F510578F00C94B3150C94FE1573
:102D80005F3FE4F3983ED4F3869577956795B795C2
:102D9000F7959F5FC9F7880F911D9695879597F9CD
:102DA0000895E1E0660F771F881FBB1F6217730746
:102DB0008407BA0720F0621B730B840BBA0BEE1F5B
:102DC00088F7E09508950E94EA166894B1110C9472
:102DD000FE1508950E94E31588F09F5798F0B92FCB
:102DE0009927B751B0F0E1F0660F771F881F991F40
:102DF0001AF0BA95C9F714C0B13091F00E94FD15D0
:102E0000B1E008950C94FD15672F782F8827B85FDF
:102E100039F0B93FCCF3869577956795B395D9F797
:102E20003EF490958095709561957F4F8F4F9F4FA1
:102E300008950E94221508F48FEF08950E9422152C
:102E4000880B990B0895AA1BBB1B51E107C0AA1F51
:102E5000BB1FA617B70710F0A61BB70B881F991F3B
:102E60005A95A9F780959095BC01CD010895A1E2EE
:102E70001A2EAA1BBB1BFD010DC0AA1FBB1FEE1FF4
:102E8000FF1FA217B307E407F50720F0A21BB30B3F
:102E9000E40BF50B661F771F881F991F1A9469F7BB
:102EA00060957095809590959B01AC01BD01CF0117
:102EB0000895052E97FB1EF400940E94701757FD8D
:102EC00007D00E94371707FC03D04EF40C947017FC
:102ED00050954095309521953F4F4F4F5F4F089546
:102EE00090958095709561957F4F8F4F9F4F089576
:102EF000EE0FFF1F0590F491E02D0994CF93DF931F
:102F00008230910510F482E090E0E0916F04F0913E
:102F1000700420E030E0C0E0D0E0309711F1408153
:102F2000518148175907C0F04817590761F4828149
:102F30009381209719F09B838A832BC09093700410
:102F400080936F0426C02115310519F042175307ED
:102F500018F49A01BE01DF01EF010280F381E02D38
:102F6000DCCF2115310509F1281B390B243031053F
:102F700090F412968D919C9113976115710521F033
:102F8000FB019383828304C09093700480936F0449
:102F9000FD01329644C0FD01E20FF31F819391932E
:102FA000225031092D933C933AC020916D04309109
:102FB0006E04232B41F420910E0130910F013093C8
:102FC0006E0420936D0420910C0130910D012115A8
:102FD000310541F42DB73EB74091100150911101D8
:102FE000241B350BE0916D04F0916E04E217F3079A
:102FF000A0F42E1B3F0B2817390778F0AC014E5F69
:103000005F4F2417350748F04E0F5F1F50936E0433
:1030100040936D048193919302C0E0E0F0E0CF0112
:10302000DF91CF9108950F931F93CF93DF93009774
:1030300009F48CC0FC0132971382128200916F0454
:10304000109170040115110581F420813181820FE6
:10305000931F20916D0430916E042817390779F57C
:10306000F0936E04E0936D0471C0D80140E050E02D
:10307000AE17BF0750F412962D913C911397AD01F6
:103080002115310509F1D901F3CF9D01DA0133830F
:10309000228360817181860F971F8217930769F4DD
:1030A000EC0128813981260F371F2E5F3F4F318376
:1030B00020838A819B8193838283452B29F4F0931B
:1030C0007004E0936F0442C01396FC93EE93129742
:1030D000ED01499159919E01240F351FE217F30725
:1030E00071F480819181840F951F029611969C93B3
:1030F0008E938281938113969C938E931297E0E036
:10310000F0E0D80112968D919C911397009719F0D9
:10311000F8018C01F6CF8D919C9198012E5F3F4F65
:10312000820F931F20916D0430916E042817390788
:1031300069F4309729F41092700410926F0402C061
:103140001382128210936E0400936D04DF91CF916D
:103150001F910F91089581E090E0F8940C94B918B4
:10316000FB01DC018D91019080190110D9F3990BBD
:10317000089510E0C2EFD0E004C0FE010E9478176D
:0C3180002196C33FD107C9F7F894FFCF98
:10318C00FFFFFFFF00E100000000000000007104E1
:10319C008000000000007601680B490127013B010B
:1031AC00BD0100000000E9019F020A02360354032E
:1031BC00FF0100000000510200C180810000000DE1
:1031CC000A00434D443A434F4E4E454354494E47F3
:1031DC0000434D443A434F4E4E45435445440043FF
:1031EC004D443A5354414E44425900434D443A41A4
:1031FC004C45525400434D443A4F4B00434D443AD6
:10320C005245414400434D443A434C4541520050D1
:10321C004D303156616C756500504D325F355661DD
:10322C006C756500504D313056616C756500726F70
:10323C00636B65744368616972006C6967687400DC
:10324C0074656D70657261747572650068756D6911
:10325C00646974790022225C5C6208660C6E0A72E6
:10326C000D7409006E756C6C007472756500666186
:10327C006C7365004E614E00496E66696E697479B7
:04328C0000652D00AC
:00000001FF
